S01D0000456D6265646465645F46696E616C5F436F64655F312E737265634A
S11300000C942A000C943F000C943F000C943F0085
S11300100C943F000C943F000C943F000C943F0060
S11300200C943F000C943F000C943F000C943F0050
S11300300C943F000C943F000C943F000C943F0040
S11300400C943F000C943F000C943F000C943F0030
S11300500C943F0011241FBECFE5D8E0DEBFCDBF16
S113006010E0A0E6B0E0E0E6F8E002C005900D92F2
S1130070AE39B107D9F70E9446010C942E040C94B2
S11300800000A99A83EC99E00197F1F700C0000001
S1130090A9980895CF93C82FA89885B39C2F9295BB
S11300A09F70990F990F8370892B85BB0E94410023
S11300B085B3CF70CC0FCC0F8370C82BC5BB0E9407
S11300C04100CF9108958FE384BB15BA83E30E9466
S11300D04A0082E30E944A0088E20E944A008FE0BC
S11300E00E944A0081E00E944A0008950F931F93E2
S11300F0CF93DF93813079F4062F10E010161106A8
S113010014F5C0E0D0E084E10E944A002196C017B3
S1130110D107C9F718C08230B0F090E0019728E207
S1130120289F8001299F100D1124060F111D101600
S113013011064CF4C0E0D0E084E10E944A0021960C
S1130140C017D107C9F7DF91CF911F910F9108957F
S1130150CF93C82FA89A85B39C2F92959F70990F1F
S1130160990F8370892B85BB0E94410085B3CF70A2
S1130170CC0FCC0F8370C82BC5BB0E944100CF911C
S1130180089581E00E944A0082E00E944A00089596
S1130190CF93DF93EC018881882331F021960E946C
S11301A0A80089918111FBCFDF91CF9108958F929F
S11301B09F92AF92BF92CF92DF92EF92FF920F93F2
S11301C01F93CF93DF937C01D62F622F732F842F3D
S11301D0952FDD23F1F0C1E0CD2ED12C0F2EFAE0C6
S11301E08F2E912CA12CB12CF02D86010C1B110902
S11301F00E0D1F1DA50194010E940C04605DF80101
S11302006083622F732F842F952FCF5FDC1768F7DD
S113021001C0C1E0F701EC0FF11D31971082C70155
S11302200E94C800DF91CF911F910F91FF90EF9032
S1130230DF90CF90BF90AF909F908F90089583B739
S11302408B6683BF8FB58B668FBD8EB58B668EBD77
S113025085B58B6685BDBB9A81B3806B81BB0895E0
S11302603E9A379A089597B18F70982B97B9369A1A
S1130270349BFECF349A89EF90E00197F1F700C0E8
S1130280000084B125B190E0922B0895CF93DF93C1
S1130290CDB7DEB7C856D1090FB6F894DEBF0FBE8E
S11302A0CDBF0E9463000E941F010E94300180E0C4
S11302B00E943301BC01990F880B990B0E94130310
S11302C020E030E040E85AE30E949F0320E030E061
S11302D040E853E40E949F030E94DB02A9966CAF9E
S11302E07DAF8EAF9FAFA997A6962FADA6972CBFD3
S11302F08FE996E821E0815090402040E1F700C06A
S1130300000081E00E943301BC01990F880B990B16
S11303100E94130320E030E040E85AE30E949F0368
S113032020E030E040E853E40E949F030E94DB0297
S11303306B017C018B0163BD8FE996E821E081505C
S113034090402040E1F700C0000082E00E943301A9
S1130350BC01990F880B990B0E94130320E030E035
S113036040E85AE30E949F0320E030E040E853E471
S11303700E949F030E94DB022B013C017BBD6ABDEE
S11303808FE996E821E0815090402040E1F700C0D9
S1130390000083E00E943301BC01990F880B990B84
S11303A00E94130326EF38E24CE950E40E949F03B5
S11303B020E030E040E251E40E9469020E94DB0246
S11303C04B015C011B010E31110584F560E081E0F5
S11303D00E94760080E690E00E94C8008FE493ECCF
S11303E00197F1F700C000000E94C10082E790E08D
S11303F00E94C8009401092C000C440B550B64E0C6
S1130400CE0101960E94D70060E082E00E9476004F
S11304108DE790E00E94C8009201550C440B550BE7
S113042064E0CE0101960E94D70032C060E081E012
S11304300E9476008EE890E00E94C8008FE493EC5E
S11304400197F1F700C000000E94C10082E790E02C
S11304500E94C8009601DD0C440B550B64E0CE01EC
S113046001960E94D70060E082E00E9476008DE74A
S113047090E00E94C800A7968EAD9FADA7979C01FF
S1130480990F440B550B64E0CE0101960E94D700EE
S11304909FE32DE083E0915020408040E1F700C0CD
S11304A0000094E1291631041CF419BC18BCFFCED9
S11304B024E1821A91088BE08816910428F484E6DA
S11304C090E099BD88BDF3CE8FEF90E099BD88BDD3
S11304D0EECE0E947D020C9465030E945E0358F0E8
S11304E00E94570340F029F45F3F29F00C944E0317
S11304F051110C9499030C9454030E94760368F3ED
S11305009923B1F3552391F3951B550BBB27AA27C8
S113051062177307840738F09F5F5F4F220F331F02
S1130520441FAA1FA9F335D00E2E3AF0E0E832D0CA
S113053091505040E695001CCAF72BD0FE2F29D0CD
S1130540660F771F881FBB1F261737074807AB079F
S1130550B0E809F0BB0B802DBF01FF2793585F4F14
S11305603AF09E3F510578F00C944E030C94990395
S11305705F3FE4F3983ED4F3869577956795B795F6
S1130580F7959F5FC9F7880F911D9695879597F901
S11305900895E1E0660F771F881FBB1F621773077A
S11305A08407BA0720F0621B730B840BBA0BEE1F8F
S11305B088F7E09508950E94E2026894B1110C94C2
S11305C0990308950E947E0388F09F5798F0B92FED
S11305D09927B751B0F0E1F0660F771F881F991F74
S11305E01AF0BA95C9F714C0B13091F00E9498037B
S11305F0B1E008950C949803672F782F8827B85F8B
S113060039F0B93FCCF3869577956795B395D9F7CB
S11306103EF490958095709561957F4F8F4F9F4FD5
S11306200895E89409C097FB3EF4909580957095E1
S113063061957F4F8F4F9F4F9923A9F0F92F96E92A
S1130640BB279395F695879577956795B795F1119F
S1130650F8CFFAF4BB0F11F460FF1BC06F5F7F4F3C
S11306608F4F9F4F16C0882311F096E911C077234E
S113067021F09EE8872F762F05C0662371F096E857
S1130680862F70E060E02AF09A95660F771F881F26
S1130690DAF7880F9695879597F9089597F99F67E4
S11306A080E870E060E008959FEF80EC08950024F6
S11306B00A941616170618060906089500240A94C3
S11306C012161306140605060895092E0394000C49
S11306D011F4882352F0BB0F40F4BF2B11F460FFD8
S11306E004C06F5F7F4F8F4F9F4F089557FD905801
S11306F0440F551F59F05F3F71F04795880F97FBE2
S1130700991F61F09F3F79F087950895121613069B
S11307101406551FF2CF4695F1DF08C016161706CA
S11307201806991FF1CF86957105610508940895FF
S1130730E894BB2766277727CB0197F908950E9491
S1130740B2030C9465030E94570338F00E945E03C1
S113075020F0952311F00C944E030C9454031124AF
S11307600C9499030E94760370F3959FC1F3950F3F
S113077050E0551F629FF001729FBB27F00DB11D21
S1130780639FAA27F00DB11DAA1F649F6627B00DB1
S1130790A11D661F829F2227B00DA11D621F739F9A
S11307A0B00DA11D621F839FA00D611D221F749FA8
S11307B03327A00D611D231F849F600D211D822FEF
S11307C0762F6A2F11249F5750409AF0F1F0882316
S11307D04AF0EE0FFF1FBB1F661F771F881F915043
S11307E05040A9F79E3F510580F00C944E030C94A1
S11307F099035F3FE4F3983ED4F386957795679524
S1130800B795F795E7959F5FC1F7FE2B880F911D6C
S11308109695879597F90895A1E21A2EAA1BBB1BFA
S1130820FD010DC0AA1FBB1FEE1FFF1FA217B307B8
S1130830E407F50720F0A21BB30BE40BF50B661FCE
S1130840771F881F991F1A9469F760957095809592
S113085090959B01AC01BD01CF010895F894FFCFA1
S11308604175746F6D61746963204D6F6465204FC9
S11308706E0046616E20537065656420004C6967A4
S1130880687420496E74656E7369747920004D61D3
S11108906E75616C204D6F6465204F6E000024
S9030000FC
